:020000040000FA
:10000000500300207D0200008102000083020000F6
:1000100000000000000000000000000000000000E0
:100020000000000000000000000000008502000049
:1000300000000000000000008702000089020000AC
:100040009D3700009D3700009D3700009D37000060
:100050009D3700009D3700009D3700009D37000050
:100060009D3700009D3700009D3700009D37000040
:100070009D3700009D3700009D3700009D37000030
:100080009D3700009D3700009D3700009D37000020
:100090009D3700009D3700009D3700009D37000010
:1000A000000000009D3700009D3700009D370000D4
:1000B0009D370000000000009D3700009D370000C4
:1000C00000F002F800F0AFF80CA030C8083824188F
:1000D0002D18A246671EAB4654465D46AC4201D180
:1000E00000F0A1F87E460F3E0FCCB6460126334203
:1000F00000D0FB1AA246AB4633431847C88B00001A
:10010000E88B00000023002400250026103A01D3CC
:1001100078C1FBD8520700D330C100D50B607047BF
:1001200010B56E2902D101F08DF910BD702902D1F0
:1001300001F0BDFA10BD662902D108F04DFB10BDDB
:10014000652902D108F048FB10BD672902D108F0EB
:1001500043FB10BD612902D1C046C04610BD0368F3
:100160001B0A01D380231943692902D101F034F914
:1001700010BD642902D101F02FF910BD752902D1FB
:1001800001F02AF910BD6F2902D101F03BFA10BD30
:10019000782902D101F078FA10BDE92902D101F0E5
:1001A000D7F910BDE42902D101F0D2F910BDF5292B
:1001B00002D101F0CDF910BDEF2902D101F02EFAE4
:1001C00010BDF82902D101F06DFA10BD0368DB09FA
:1001D00001D380231943632902D101F0B0FE10BD81
:1001E000732902D101F0B3FE10BDE32902D101F061
:1001F000BDFE10BDF32902D101F0C0FE10BD0020EC
:1002000010BD1FB501F022FF04000020002108F0FE
:10021000C7F9401C60600020002108F0ABF9E060E5
:100220001FBD10B510BD01F0E9FE1146FFF7E9FF53
:1002300006F0FCFE02F00AFA03B4FFF7F2FF03BC7B
:1002400000F0DDF870B505460C46164602E00FCC0E
:100250000FC5103E102EFAD2082E02D303CC03C5D0
:10026000083E042E07D301CC01C5361F03E02178D8
:100270002970641C6D1C761EF9D270BD06480047BB
:10028000FEE7FEE7FEE7FEE7FEE7FEE70348044978
:10029000024A044B70470000C100000050FFFF1FDE
:1002A0005003002050FFFF1F4343514330B55C18FB
:1002B000010C130C0D4692B25D4380B251432C19D0
:1002C000054655430A0C09044D1962415843010C77
:1002D00000044019514130BDFEB5054610460C469C
:1002E000184373D0AE468C460020AD1A01469C419F
:1002F00067D36646002701243D46B61A9D4102D3C6
:1003000013463A462124654676462F04360C3E4372
:100310002D0CB61A9D4104D3150C1B042B4312045B
:100320001034654676462F06360A3E432D0AB61A25
:100330009D4104D3150E1B022B431202083465465F
:1003400076462F0736093E432D09B61A9D4104D340
:10035000150F1B012B431201241D65467646AF077E
:10036000B6083E43AD08B61A9D4104D3950F9B00D5
:100370002B439200A41C65467646EF0776083E4361
:100380006D08B61A9D411AD392185B41641C16E0A1
:100390000018764665464941B71A9D410191009083
:1003A00009D36046B11A98418E4684460098019957
:1003B0000025401C6941DD0752082A435B08641E82
:1003C000E6D57246634603B0F0BDFFE70020014664
:1003D000C046C0462A462346F5E7000010B50A4647
:1003E000014901F043F810BD14F0FF1FD2B210B55F
:1003F00013029A1813049A1800F044F810BD7047BD
:10040000FFFFFFFFFFFFFFFFFFFFFFFFFEFFFFFFFD
:10041000034610B50B439B070FD1042A0DD308C820
:1004200010C9121FA342F8D018BA21BA884201D9C4
:10043000012010BD0020C04310BD002A03D0D30707
:1004400003D0521C07E0002010BD03780C78401C3C
:10045000491C1B1B07D103780C78401C491C1B1B33
:1004600001D1921EF1D1184610BD01E004C0091F50
:100470000429FBD28B0701D50280801CC90700D05C
:100480000270704700290BD0C30702D00270401CD5
:10049000491E022904D3830702D50280801C891ECD
:1004A000E3E70022EEE70022DFE7002203098B42A8
:1004B0002CD3030A8B4211D300239C464EE0034603
:1004C0000B433CD4002243088B4231D303098B42B7
:1004D0001CD3030A8B4201D394463FE0C3098B42ED
:1004E00001D3CB01C01A524183098B4201D38B0146
:1004F000C01A524143098B4201D34B01C01A5241E9
:1005000003098B4201D30B01C01A5241C3088B422D
:1005100001D3CB00C01A524183088B4201D38B0018
:10052000C01A524143088B4201D34B00C01A5241BA
:10053000411A00D201465241104670475DE0CA0F91
:1005400000D04942031000D34042534000229C4651
:1005500003098B422DD3030A8B4212D3FC2289015B
:1005600012BA030A8B420CD3890192118B4208D331
:10057000890192118B4204D389013AD0921100E093
:100580008909C3098B4201D3CB01C01A52418309A7
:100590008B4201D38B01C01A524143098B4201D3D4
:1005A0004B01C01A524103098B4201D30B01C01AFF
:1005B0005241C3088B4201D3CB00C01A5241830879
:1005C0008B4201D38B00C01A5241D9D243088B42CF
:1005D00001D34B00C01A5241411A00D20146634672
:1005E00052415B10104601D34042002B00D54942D6
:1005F000704763465B1000D3404201B50020C046FF
:10060000C04602BD70477047704700000246C80FE1
:10061000C00781434B0030B54B405B009B0D20D0A1
:100620001923DB06C91801231B05994220DB03248B
:10063000A40704251346AB400BD3002B04D1EB06D3
:1006400013409B00E34204D40124640700231219E1
:100650005941FF231B0599420BD2C9000143500F9A
:1006600009E0CB0204D501430803024305D0054845
:1006700030BDFF21C905084330BD084607210905E3
:10068000884330BD0000C07FF0B50C46871A9C41FE
:100690000D46861A9D4103D2C01BA141D219634168
:1006A0000D0D1F0DC94EEC1BAE435CD07F057F0DB9
:1006B0000026002F51D02D05AC46A943DD020123B1
:1006C000ED0A1B051D4320231B1B24D41746E740BE
:1006D000381871412F46E740CC199D402818314603
:1006E00061410C0D27D161449A4013D50023401C71
:1006F000594152000ED14008400001224B005205E2
:10070000D34207D305204007C14201D5B04900E0DC
:10071000B0493046F0BD6B00002A00D001229A1883
:100720001F23203C1B1B01D5002302E0E5402818B5
:1007300071410C0DD7D0012424050919C407CD0738
:1007400040084908E40F28436144002CD5D0002418
:10075000401C61419A40D0D1CDE76A05520DD9D1F4
:10076000C90FC907D5E79C4D4E00002801D00124D0
:1007700000E0002434195F00002A01D0012600E0C7
:100780000026BE19954FAC420CD8AE420AD8B442EE
:1007900006D001256D05EC42BCD010461946F0BDCF
:1007A0009942FCD000203946F0BDF0B51FB40C468C
:1007B0000F46811A9F412546861A9D4106D2012582
:1007C000ED076F40401ABC4152187B41210D1E0DB0
:1007D0008D1BAC467D4D8D437ED075056D0D7CD057
:1007E0000D05AE46AC431B031B0B794D52429D4198
:1007F000202366469B1B14D31746F7403818002663
:100800000090744160462F460741E41900989D40CE
:100810002818664116D4714671189A4025D50123CF
:1008200020E093182A466A415200002B00D0521C47
:100830001E23203E9B1B002B61DD3541EE1728183F
:100840006641E8D5001876415B1C9A4000D3401CF5
:100850004B05F3181524E34010D3002B52D07146FA
:100860007118D30FC01802D3491C05B0F0BD012385
:10087000DB079A42F9D140084000F6E70122520511
:10088000B21801D1002853D00123CC0ADB029943CE
:10089000891E002A08D1020C03D0020C0004103972
:1008A00002E00246002020390023550B05D1120238
:1008B0000823550B01D152010D23550C01D1120112
:1008C0001B1DD50C01D192009B1C150D01D15200AE
:1008D0005B1C2025EE1A01E02CE022E00546F540E5
:1008E00015439840CA1AE10769181305C918002A68
:1008F000BBDA032040070818C10FC9070FE0714693
:100900006118B2E7F10740080843711071444A00CA
:100910000CD001235B059A42A7D2C90FC90700205A
:10092000A3E74905490D26D1002001E00028F4D1B4
:1009300000219AE7284D6600002801D0012100E03F
:10094000002171185F00002A01D0012600E0002676
:10095000BE19224FA94210D8AE420ED8B14208D0DB
:1009600001256D05E94206D01946A802414010460E
:100970007BE79C4201D0214677E70020394674E7A7
:1009800010B50C465C4005D50124E4076340FFF731
:100990000CFF10BDFFF778FE10BD30B40C465C4074
:1009A00004D50124E407634030BC6DE630BCFCE6AE
:1009B00070B50124E40761400D465D4002D4FFF7A5
:1009C00063FE70BD6340FFF7F0FE70BDFF070000DF
:1009D0000000F0FF0000F07F0000E0FF0000F87F63
:1009E000F0B5F94D0C091E092C402E402F468BB056
:1009F000A7437DD0B543FCD0002E7AD0002CFCD08C
:100A00000D465D40ED0F2543AC1BFF25AD04641979
:100A10000894C502440DC9022143500DDC02044371
:100A20000120C00701430443D2020191200C110CA4
:100A300000958C46010423468B430A9161460904C4
:100A4000E24D8A430991010A7D44491980390978A8
:100A500005464D4301266D18F605751B6943C90C03
:100A6000640B891C4C436418B5012C1B250C2E0407
:100A7000B4434C434D43210C691889090591009DED
:100A8000E90701D00121C90704912C4601996708A3
:100A9000CD072F434C08059DE10B4D432D0C2946F6
:100AA0006646754302950D4645432E46029D7D1BC5
:100AB000B44100950D465D4301942C0C2F040D4666
:100AC0005543AE462D0C3D43029503947546049C58
:100AD0002D04641B049406D2029C039D641C002612
:100AE00075410395029401AC70CC009F7D1B01E021
:100AF0003EE162E1B4410904009507910194059932
:100B0000A4086143090C0C464443650BE7040C46FA
:100B100066467443A646640B3C43039502947446B0
:100B2000049DE4042C1B049406D2029C039D641CC7
:100B3000002675410395029401AC70CC009F7D1B8B
:100B4000B44101940C465C430095650FE7000C46E8
:100B50005443A646640F3C43039502947446049D97
:100B6000E4002C1B049406D2029C039D641C002606
:100B700075410395029401AC70CC009F7D1BB4417C
:100B8000AE09AF06049DC900AD092F43049DA4061C
:100B9000AD060495079D344369180791059DE10B47
:100BA0004D432D0C29466646754302950D46454337
:100BB0002E46029D7D1BB44100950D465D43019478
:100BC0002C0C2F040D465543AE462D0C3D4302958B
:100BD00003947546049C2D04641B049406D2029C65
:100BE000039D641C002675410395029401AC70CCF2
:100BF000009F7D1BB44101948C050694079C890AD3
:100C0000611800950791019C0599A4086143090C9E
:100C10000D464543680BEF040D46644665436C0B77
:100C20003C43049FED047D1BAC4602D20025641CAE
:100C30006841009E019D371B854108465843019538
:100C40000C46460FC5005443600F28436546E40038
:100C50002C1B02D20025401C6E41019D3F1AB5415C
:100C60002846BD09800628438446A009BF064E02D7
:100C70000699A40676180743079D002068410A9943
:100C8000079019430020099B00906046FF19134309
:100C90004041E20F64003A43A4460446D71A8C410F
:100CA000A04203D90120009020463A46C70F94186D
:100CB00040416246D20F2243644664000494009C83
:100CC000BE466400D71AA446044602978C41774674
:100CD000002F01D1A04204D96046401C8446029AEC
:100CE0002046C40FA64694184041049A0546D20FE8
:100CF000224364466400D31A8D417146002901D114
:100D0000A84202D928461A46641C10430122002832
:100D100000D0164361020020079B891904465C41FC
:100D20000223002C02DB491813466441089DCE0AB9
:100D30002D145D194B056705E10A2C050D1908995D
:100D40003E43C9076940002B08D0934006D30022D8
:100D5000761C5141002B01D1760876001C4A002DEB
:100D600043DB154241D0AA433FD030460BB0F0BD23
:100D700006180D464D41174C7642AC411AD39518D2
:100D80001C465C41134A6D42A24113D30122520515
:100D90004C00D4420AD15C00D4420BD04B4002D567
:100DA00092021143E2E749004908DFE75940C90FC1
:100DB000C90718E000200849D8E7054801420DD1CD
:100DC0000342F7D0F2E700000000FF079C7F00001D
:100DD0000000F07F0000E0FF0000F87F114859405C
:100DE0000143C01241400020C0E70123089A9B063E
:100DF0009A4205DC032252078918C90FC907B5E7D3
:100E0000052252078918074A1143D2125140ADE713
:100E100070B515461C4602460B4628462146FFF78C
:100E2000DFFD70BDFFFFFF7FF0B58B4C0F0925463E
:100E300089B0BD437BD01D092646AE43FAD00E468D
:100E40005E402740F60F3E43254071D024012142E9
:100E5000FBD0FF24AD19A4042D1B039501252D05FE
:100E6000DB02DB0AC9022B43C90A29431E0109011F
:100E7000040F130F050121431701880B82039143CF
:100E80002D098C46A90B1E438A039543B30B9A0385
:100E900096433F09BA0B9403A74302962E467E431E
:100EA0000497B6464E19D7190C4601965443059738
:100EB0007E43371B7646BF1B3601B646BE0B36193E
:100EC00000967646BC043719009C01D3641C00943C
:100ED0006400002F01D001263443029E049F754315
:100EE00066467E430496760034196E0034190094E9
:100EF000029C019E1C196643751BAE46069465460E
:100F00004519059C05956C43594375460891691A26
:100F10000191049E01465143A41B0491611A009C57
:100F20000791E10605D061090122114302E072E058
:100F30006EE06109089D00272C0A2D066918049DA2
:100F40007C412A0A2D066918019D6241AC0DAD0253
:100F50006D185441079A910D920255196141029AF8
:100F6000644658435443069B059A5A43121A131B6E
:100F70009A0E9B015B187A41010B0005C318514181
:100F8000220A200644195A419A4200D2491C0120E3
:100F90004002814203D315230226F64302E01423C4
:100FA0000326F6432020C51AA9401746AF40DA4071
:100FB0000A4320460399D84009147318190551189B
:100FC000039A3843D2075140AC4009D001229440E3
:100FD00006D30022401C5141002C01D140084000A2
:100FE0001E4A934212D3012203989206904207DBD5
:100FF0000520400709181A480143C012414004E087
:10100000032040070818C10FC907002009B0F0BD30
:101010000020F107FAE705180C464C4111486D42D3
:10102000A04115D394181A465A410E486442904183
:101030000ED301204A004005824209D35A00824261
:1010400006D35940C90F084AC90700201143DDE7FC
:1010500000200649DAE700000000FF07FE07000055
:10106000FFFFFF7F0000E0FF0000F07F0000F87F3F
:101070000121C9050123411842001B06D3185B0E4C
:101080000AD0C1100722D206891840075242D14225
:1010900001D5520089187047090208D50146002A77
:1010A00003D0C10FC90700207047104670474202A5
:1010B00002D0002002497047072109050143F4E7E7
:1010C0000000F87FF0B5FF252D04C609C209FF27EF
:1010D00004462E400137CB093E4348402A402B406E
:1010E0000746002A6BD0002B69D0AA4267D0AB42DA
:1010F00065D0002800DA32460125ED0529432C434E
:1011000009022002090AD21A4B0C7F24E31A434C2D
:10111000000A7C44E35C7D242404121914145B004F
:10112000A218884201D3521C00E0400049420C46FC
:101130005C4324115C43DB016415E318040A5C433F
:10114000C502200D0C4644436419250A5D43230360
:10115000EC0C0D46654300030019EB184C42A3420A
:1011600001D35B18401CD4052018002B07D05B006E
:10117000C91804D3401C002901D1400840003F2178
:1011800089048A4209D3002A08DC1106090F04D019
:10119000032149074018C00FC007F0BD01224100DC
:1011A000120689187F2252069142F6D2052149077C
:1011B000C84201D59010F0BDFF20C005F0BD002F42
:1011C00000DA32461648AA4207D2AB4205D21902CB
:1011D000090E17D0F80FC007F0BDFF2563002D06DC
:1011E000AB42F9D84900A942F6D8AB4201D1A94295
:1011F000F2D0A94201D1002101E061004908D005E7
:101200000843F0BD1102090EFBD0FF200243D005B8
:10121000F0BD0A460146104654E70000527900002E
:101220000000C07F10B501469E240002CA15A30726
:10123000002A02D01843002A04DBA21A002A0CDD7F
:10124000D04010BD1206120E01D140004008A21A73
:1012500003D4D04040420028F3DDFF2248001206AC
:10126000904201D9002010BDC817C043584010BD9E
:101270000102C21504D00123DB071943002A0ADB4F
:101280009E239A1A02D40846D0407047FF2241009C
:101290001206914201D900207047C017C043704721
:1012A0001F22030C02D10F2200041CD0030E01D117
:1012B0000002083A030F01D10001121F830F01D170
:1012C0008000921E002801DB4000521ED2055118FA
:1012D000021251181922904004D3491C002801D150
:1012E0004908490008467047C10FC90700D040426D
:1012F000012292071143D3E701218907D0E710B5F6
:1013000000F056FB006810BD10B5044600F050FB1D
:10131000046010BD70B5044685690068C10601D53A
:10132000302600E02026C00707D070BD6268304636
:10133000A1689047206A401C20626D1EF6D570BDE2
:1013400070B5044685690078C00707D170BD626832
:10135000A16820209047206A401C20626D1EF6D5AF
:1013600070BD09684A0501D540B27047C905FCD572
:1013700000B2704709684A0501D5C0B27047C90577
:10138000FCD580B2704770B50C460546012A05D0E1
:101390002878800600D5EA69002302E0012305E0F1
:1013A0005B1C934202D2E05C0028F9D1A869E618E0
:1013B000C01AA861286AC01828622846FFF7AAFF49
:1013C00004E06A682078A968641C9047B442F8D3A6
:1013D0002846FFF7B5FF70BDF7B5002575291068E1
:1013E000009914A611D0FFF7BCFF002802DA404292
:1013F00011A608E0009909688A0701D50FA602E046
:10140000490704D50EA6012501E0FFF7B3FF009FB1
:101410000024243704E000F0D9FD30313955641C34
:101420000028F8D12B4632462146009800F001FBF7
:10143000FEBD0000000000002D0000002B00000099
:101440002000000011680268006A530501D5087089
:1014500009E0D30501D5088005E0130602D5C217BF
:1014600005C100E00860012070470000084B70B51E
:101470000D467B4400F045FD0446284600F082FD01
:10148000002802D00020C04370BD204670BD00007F
:101490001B5B0000F7B50446154686B02B48784420
:1014A000002703C83E460090019111E007986A4664
:1014B0007100415A02A800F069FD411C07D0217853
:1014C000890603D5E269391891420ED83F18761C77
:1014D0002078800602D5E069B84206DDAE42E5DB41
:1014E00007987100405A0028E0D1A069C01BA06194
:1014F0002046FFF70FFF154878445A3803C800907C
:101500000020019116E041006A460798415A02A85E
:1015100000F03CFD0590401C0AD0002505E0626803
:1015200002A8A168405D90476D1C05988542F6D3DE
:101530000498401CB0420490E5DB206AC019206288
:101540002046FFF7FDFE09B0F0BD00005676000012
:10155000F7B5D21D0025D20815A6D200F52905CA77
:1015600011D0002A05DA00214042914111A60A4615
:1015700008E0009909688B0701D50FA602E049072A
:1015800001D50EA601251146009F0024243704E052
:1015900000F012FA30323A55641C02460A43F7D181
:1015A0002B4632462146009800F043FAFEBD00006B
:1015B000000000002D0000002B00000020000000B3
:1015C00070B504460021243408E05507D2086D0F99
:1015D000303565545D072A43DB08491C15461D4319
:1015E000F3D10468002310A2250708D520252C403C
:1015F0000C4304D0C46901230CA2641EC46100F032
:1016000018FA70BD10B5044621461068FFF7B2FE07
:10161000002302462046FFF7D3FF10BDD21DD1089C
:10162000C9000CC9CCE70000000000003000000039
:10163000F8B50F460188090502D5224C7C4402E02A
:10164000204C7C440E3405460021243508E0160762
:101650001209360FA65D6E541E0732431B09491C42
:1016600016461E43F3D1224604780023240705D5ED
:10167000702F06D0002901D00223113200F0D9F9D1
:10168000F8BD01231032F9E770B504460D46214636
:101690001068FFF76FFE0023024629462046FFF739
:1016A000C7FF70BDD21DD308DB000CCBC0E730B440
:1016B000036820241268234303600823C36130BCFD
:1016C0000023B5E7C0740000F3B50446002081B0E4
:1016D00020622046E1688847002872D0252802D081
:1016E0006268A168ABE0594F00267F442046E1685C
:1016F00088472028054608DB312D06D27819203886
:101700000078002801D00643F0E7B00701D5042097
:1017100086430020E0610746A0612A2D0AD02846B2
:1017200001F024FF002827D0B8000019303D0090B8
:10173000856119E00298BA00121902C891610290FD
:101740002046E1688847012F054617D1E069002847
:101750001FDA202086431CE000980A218069484354
:1017600000994019303888612046E168884705466D
:1017700001F0FCFE0028EFD1012F0AD02E2D08D158
:101780002046E16888470546202006437F1C022F3B
:10179000C3DBA069002803DA4042A06101200643B0
:1017A000F00701D0102086436C2D0BD0682D09D096
:1017B0004C2D3CD06A2D38D0742D38D07A2D36D0AF
:1017C00016E040E0E1682F4620468847B8420546CB
:1017D00009D16C2F29D001208002E1680643204600
:1017E0008847054604E06C2F1DD0FF2001300643DA
:1017F000002D28D028464138192803D80120C002DE
:1018000006432035204626602946029A1646FEF7F2
:1018100087FC002810D001280BD0F61DF008C0006E
:101820000830029055E74020E1E78020D5E700200E
:10183000D3E7361D02964CE762682846A1689047B8
:10184000206A401C44E7206AFEBD00003A74000094
:1018500070B505464800440D124B0020002C0AD0FC
:10186000634008D09A4206DA6642B24203DD1205AE
:101870004019514170BD002C08D0002B09D0C90F70
:10188000C907002AF6DB084A114370BDC90FC90712
:1018900070BD28460A03104302D00020034970BDE2
:1018A000284670BDFF0700000000F07F0000F87FB1
:1018B000F0B53D4B02460C461C400020002C63D086
:1018C0003A4D8B4366D000296BDB0B0D1D05A943F8
:1018D00001252D0529430124FD33E34001D392184E
:1018E0004941FF3381339C468B02940D01212343F0
:1018F00089074C42920200271B198C105D1A04D4F0
:101900002D1B02D42B466500491992185B416408CF
:10191000F4D15C1A08D40125ED07EE17551974416E
:1019200002D42A462346491C94185B41012292079F
:101930001D46E61B8D4106D4B61A854103D42B46BD
:10194000550034467F1924195B415208802AEFD193
:10195000234300D0022338460A22D04001D301227B
:1019600013438A0510436246890A12058918002B21
:1019700009D00122D34002D30022401C5141002B48
:1019800001D140084000F0BD0B03134307D0C90F3D
:10199000C907F0BD0803104303D1002901DB10463D
:1019A000F0BD00202946F0BD0000F07F0000F87F68
:1019B00000487047F0FEFF1F0B4670B502468907CE
:1019C0008008084319469D08141AA94125090807EB
:1019D000054308092C194841250A01060D43010A4F
:1019E0002C194141200C0D0428430D0C00194D41C8
:1019F000002140194D41C00869070843E908840FD8
:101A00008D002543840024184D4124196D41121B7B
:101A1000AB4107E00925ED432C1152196341002425
:101A2000401C61411C460A250026551BB441F1D2D9
:101A300070BDFFB504460D4681B02430009021688A
:101A4000880604D51022E0699143216000E001205E
:101A5000A84201DD471B00E000270498A1697A191C
:101A60001018081AA0612078C00602D42046FFF79B
:101A700051FC002608E003986268A168805D9047E9
:101A8000206A401C761C206204988642F3DB207892
:101A9000C0060AD52046FFF73DFC06E06268A16853
:101AA00030209047206A401C206238467F1E002864
:101AB000F4DC07E000986268A168405D9047206A06
:101AC000401C206228466D1E0028F3DC2046FFF7EC
:101AD00037FC2078000602D5022005B0F0BD0120B9
:101AE000FBE700007047FFB50C461E468FB003CAE7
:101AF000089009914F007D0D00D16D1E0021084610
:101B00000020C0460321099A89050840002A03DA0B
:101B10008200801840080840800D01280A9002DDEC
:101B20000020C0430A90089807430DD0EF48F049C1
:101B3000281848430714189800281DD07542291EFC
:101B40001DDD0A9842421BE01898012802D00020AF
:101B5000302104E00020F24305E02154401CB04253
:101B6000FBDB30460022189B002121540F998B602B
:101B70000A60486013B0F0BDBD1B6D1CDFE70A9A18
:101B8000002900DA69420BA800F0A8FA0BAB07CBDA
:101B900003AB07C30899099800F004FB6B4607C321
:101BA0000146D4480918002D00910ADDD149039857
:101BB0000A9A4942401803A90390684600F017FDAD
:101BC00007E003990A9A081803A90390684600F0F1
:101BD000E4FC6B4607C30004000C03D00020C043A4
:101BE000410800E01046189A002A03D00022009213
:101BF00015461EE0751E05D4FFF7DEFE3032625535
:101C00006D1EF9D501220843079602D000227F1CE1
:101C100004E02078302801D100227F1E002A069798
:101C200089D01EE0112D07DAFFF7C6FE303262556B
:101C30006D1C02460A43F5D1084303D000980028E2
:101C400019D00EE00021681E05E0235C625C63543D
:101C50002254401E491C8142F7DBA81B401E0795F9
:101C60000690079A18990020A0540F98079B069A8F
:101C700081600CC07EE71126002018905BE7D21D22
:101C8000F0B50D460446D10893B0C90003C90C90C5
:101C90000D9100F091FD02460D98C00F01D02D204E
:101CA00007E02068810701D52B2002E04007C00F24
:101CB0004001032A0F9001D0072A05DB034629467D
:101CC000204600F0C7F90EE12078800601D5E769CB
:101CD00000E006272846652D04D0662814D0672D1D
:101CE00069D12DE00020112F009001DB112300E0CD
:101CF0007B1C0CAA03A910A8FFF7F5FE119900267A
:101D000010987D1C0E9142E001203B460CAAC007B2
:101D10000B900120009003A910A8FFF7E4FE119D8D
:101D200012981099002600280E9501D1781C0D18E4
:101D3000781B02D446427D1C761EE81B00903AE0D8
:101D4000012F00DA01270020112F009001DD11235F
:101D500000E03B460CAA03A910A8FFF7C4FE1199A6
:101D60003D46109800260E91217809070BD40E9954
:101D7000A94200DA0D4603A9012D04DD4A19203AD3
:101D8000D27F302A06D0B84201DA011D04DA0121DF
:101D900000910FE06D1EEFE7002802DC86192D1A76
:101DA00003E0411CA94200DD0D46801B401C009051
:101DB0000120C0070B902078000705D40098A842A6
:101DC00002DB0020C043009069460020C8720B98D7
:101DD000012102AF0337C907884225D002201090A5
:101DE0002B2011900B9800280BDA40420B902D20ED
:101DF000119006E00B9800F0E9F830317F1E0B904F
:101E000039701099481E00291090F3DC0B980028B7
:101E1000F0D111987F1E38702088000501D545202B
:101E200000E065207F1E387001A8C01BC01D0B900C
:101E30000F98002800D0012041190098C0170918F8
:101E40000B980818A169081A401EA0612078C006E6
:101E500002D42046FFF75EFA0F98002805D062688A
:101E6000A1689047206A401C20622078C00625D5D2
:101E70002046FFF74FFA21E0002E07DB0E98B04214
:101E800004DD03A86268805DA16802E06268A16861
:101E900030209047206A761C401C20620098401E2B
:101EA000002800900AD100F0D1F8C068626801688B
:101EB000405CA1689047206A401C206228466D1E45
:101EC0000028D9DC07E062683878A1687F1C904759
:101ED000206A401C20620B99481E00290B90F2DCFE
:101EE0002046FFF72DFA032044E6000001FCFFFF27
:101EF000104D0000E1DFFFFF01694A1C0261087814
:101F0000704700B58FB002910021059105490193FA
:101F100079440391114604906846FFF7D5FB0FB052
:101F200000BD0000E5FFFFFF10B54369002B02D0A4
:101F3000C046C04601E0FFF726FA012010BD127826
:101F4000014624310A7000224A700122ECE7116830
:101F50000022D243E8E710B54369002B02D0C04607
:101F6000C04601E0FFF796FA012010BD1288014635
:101F7000243182840022C2840122ECE7116800220D
:101F8000D243E8E7C06880210840704770B5164624
:101F90000C46054600F052F80368FF200230C05C92
:101FA000012807D0FF2C0ED8185D00280BD0012087
:101FB0002C7070BDFF333246214608331868C318B1
:101FC0002846984770BD0020C04370BD0146800878
:101FD000081A02091018020A1018020C1018C0087A
:101FE000820012185200891A01E0401C0A390A299D
:101FF000FBD2704700487047F0FEFF1F7546FFF7A1
:10200000F9FFAE46050069465346C008C000854644
:1020100018B020B5FEF73AF960BC00274908B6466B
:102020000026C0C5C0C5C0C5C0C5C0C5C0C5C0C5E7
:10203000C0C5403D49008D467047000010B500F016
:1020400005F8001D10BD00BF59650000004870472D
:1020500010FFFF1FF8B51F46044601230068DB028E
:10206000032601461840072A05DB002801D017A5E2
:1020700006E017A504E0002801D016A500E016A58B
:10208000102081432160A069C01E002FA06101D0F3
:10209000401EA0612046FFF73DF9002F09D03846C9
:1020A0006268A1689047206A401C2062C01C2062C0
:1020B00006E0206AFAE762682878A1686D1C9047FC
:1020C000761EF8D22046FFF73BF9F8BD4E414E0090
:1020D0006E616E00494E4600696E6600F7B51646A1
:1020E0008AB02F4878446C4603467C33C06F5A68E8
:1020F0009B680DC42A487844763003AC0DC80DC4E3
:102100003720C001081837211B30FEF7D8F90546E3
:102110000C46803D1B3C02D56442012000E00020BB
:10212000002709900FE0E0070BD00C201C497843F2
:10213000794432464C394118684600F02EFA6B4615
:1021400007C364107F1C002CEDD1154F7F442C3F3A
:1021500015E0E80711D02001C0190EC806910893B8
:1021600007920068F04201D198190890324606A9FA
:1021700003A800F012FA03AB07C36D10641C002D16
:10218000E7D1324669460998002803A802D000F03A
:102190002EFA01E000F001FA0A9B07C30DB0F0BD72
:1021A000F86A0000034640000A4610B5400D0BD007
:1021B0000121C9070F24A40200191C03640821434C
:1021C000540D2143D20207E000210120F2E7D40F91
:1021D000490021435200401E0029F8DADB0FDB07DB
:1021E000184310BDFFB50D46144685B048685168C8
:1021F00000F0BBFA00910190A868A16800F0B5FA60
:1022000002910390A868616800F0AFFA029A121870
:102210008242029201D2012000E00020019A0B18B4
:10222000D2180028019202D08A4202D903E08A42E1
:1022300001D2012000E00020009908180090686891
:10224000A16800F092FA029A12188242029201D218
:10225000012000E00020019A0B18D21800280192FA
:1022600002D08A4202D903E08A4201D2012000E072
:102270000020009908180090286821684000490053
:10228000400849084018EE49471814E001994000F9
:10229000C90F08430090019802994000C90F0843F4
:1022A0000190029803994000C90F084302900398D7
:1022B00040007F1E039000980028E7DA0898002865
:1022C00001D0E04E00E00026B74228DAF71BF806FE
:1022D000C00E15D0029B2021091A039A8B401A4385
:1022E0000392029A019BC2408B401A430292019AC8
:1022F000009BC2408B4000991A430192C14000915B
:102300007A110BD06B460320811A01D5002101E020
:10231000890059588700401ED951F5D53746039892
:102320000299002800D0012001430898029100285A
:1023300008460CD0002800D001200199019A4905D7
:1023400008430121D20AC902D202019200E0012110
:102350000E9B0122D207012B02D0002B03D013E0E9
:10236000002807D116E0904204D890420CD1019B7E
:102370000B4209D0019B5918019105D10099491CC4
:10238000009101D17F1C0092002803D01021084643
:102390000020C04628682168019B009A4840C10F70
:1023A0000598C90739430EC009B0F0BDFFB587B025
:1023B000099A08980899536892684068896896460F
:1023C0000022039317469446089A12685300099A0C
:1023D0005B081268520052089A1A9B4BD4180A9A4A
:1023E000002A01D0352200E040220692002201237B
:1023F00015460492DB07059324E0002D05D17546B0
:102400000346039E4D1BB34109D375466646039BA5
:10241000491B049D9841059B7519AC465F41634675
:102420003B4308D0059B049EDD0776082E435B08DE
:102430000496059301E0521E641EC50FED0749186E
:102440004041521C069B9A42D7DB002D04D17546B1
:10245000039A6B1A824101D203200CE0039A0B46C7
:102460006B404240134303D0014303D0012002E0FC
:10247000022000E0002061460191002100970291B6
:102480000A99002905D06146400201436D4B019134
:1024900002E08007002302909C423ADA1A1BD00621
:1024A000C00E15D0029D2021019C091AC5408C4008
:1024B0002543029C8C4000D001242543019C0295B9
:1024C0003D46C4408D4039462C43C14001940091A3
:1024D00054111DD06D460221002202290CD1032087
:1024E000001B07E0002804DB8600AE59002E00D058
:1024F0000122401C0328F5DB081B02D588002A5066
:1025000004E08000285810438A00A850491EE3D5F3
:102510001C460A98002802980CD0002800D0012000
:102520000199019A490508430121D20AC902D20240
:10253000019200E00121109B0122D207012B02D061
:10254000002B03D013E0002807D116E0904204D8F6
:1025500090420CD1019B0B4209D0019B591801916B
:1025600005D10099491C009101D1641C00920028FA
:1025700003D0102108460020C04608980999019A06
:102580000068096848400099C30F0798DB07234398
:102590000360826041600BB0F0BD1FB50023009264
:1025A0000A46014601A8FFF71DFE01AB07CB04B0A8
:1025B00010BD1FB5012300920A46014601A8FFF78E
:1025C00011FE01AB0F2407CBA402C30F4000DB07B1
:1025D0004008001B002900DB0020490000054908D5
:1025E000CC0A204349051843D20A1143DFE71FB53F
:1025F000002300920A46014601A8FFF7D7FE01AB6F
:1026000007CBD4E71FB5012300920A46014601A873
:10261000FFF7CCFE01AB0F2407CBA402C30F400091
:10262000DB074008001B002900DB002049000005F3
:102630004908CC0A204349051843D20A1143B6E79A
:1026400002C0FFFF013C0000FF3F000010B5044640
:10265000C046C0462046FDF7EFFD10BD024670B5EE
:102660000A4392072AD11E4DEE0104C808C9541B23
:102670009443344017D0D0B2D9B2401A2106014356
:1026800010D190B299B2401A210401430AD110022C
:102690001902000A090A401A2102014302D1100E50
:1026A000190E401A70BD9A42DFD010BA19BA88428A
:1026B00001D9012070BD0020C04370BD02780B78A5
:1026C000401C491C002A09D09A4207D102780B7895
:1026D000401C491C002A01D09A42EFD0D01A70BD8C
:1026E0000101010170B58C180578401C6B075B0F68
:1026F00001D10378401C2A1106D10278401C03E066
:102700000678401C0E70491C5B1EF9D12B0705D4BE
:102710000023521E0DD40B70491CFAE70378401CAD
:10272000CB1A921C03E01D780D70491C5B1C521ED5
:10273000F9D5A142D8D3002070BDF8B582B28BB2D2
:1027400004140D1410465843002126465E433714E6
:1027500036048019794116466E43371436048019C1
:10276000794126466E438919F8BDF8B582B28BB21D
:10277000040C0D0C10465843002126465E43370CCE
:1027800036048019794116466E43370C3604801999
:10279000794126466E438919F8BD30B47446641EEB
:1027A0002578641CAB4204D3635D5B00E31830BC46
:1027B00018471D46F8E700004900CA02024310000E
:1027C00000D004204A0D01D001221043044A490DD3
:1027D000914201D102210843012800D10520704710
:1027E000FF07000010B502F049FF1C490968087B8B
:1027F00003F024F919490968487B03F02BF90020FC
:1028000003F086F9032003F031F9002002F07EFF87
:10281000002002F0B3FF012002F05AFF0F490968BF
:10282000887902F041FF002002F07CFF02F064FF93
:102830000A490968087A02F02BFF0020084908704D
:1028400008490871087100BF02F04EFF0028FBD054
:1028500000BF02F09FFF0028FBD110BD28F0FF1F32
:10286000005006400040064010B502F007FF4849FE
:102870000968087B03F0E2F845490968487B03F0E2
:10288000E9F8032003F0F2F8012003F041F90020F9
:1028900002F03CFF00BF3F484078802188433D491B
:1028A000487008464079202188433A49487100BF62
:1028B000022049783022914302011143354A517078
:1028C00000BF012011464978042291438200114340
:1028D000304A517000BF00BF2F4800788021084364
:1028E0002D49087000BF002002F0F2FE2849096857
:1028F000887902F0D9FE002002F014FF02F0FCFEFD
:10290000022002F03BFF00BF00BF22488079022175
:1029100008400028F8D000BF02F0E6FE0028FBD1F6
:102920001B490968087A02F0B3FE00BF1948007914
:10293000402188431749087100BF15490968087983
:1029400002F030FF12490968487902F03DFF00BFEC
:1029500010480079402108430E49087100BF01204A
:10296000497940229143820111430A4A517100BFC3
:1029700000BF02F021FF0028FBD0002002F0FEFE85
:1029800000BF02F007FF0328FBD1002010BD0000AC
:1029900028F0FF1F0040064000500640F7B584B005
:1029A0000C4600260025002003900027029001908D
:1029B00004272046784301460498FDF776FD0290EF
:1029C0000298784301460498FDF76FFD0546A5423D
:1029D00002D9281B039001E0601B039005261DE02F
:1029E0002046704301460498FDF75FFD029002986F
:1029F000704301460498FDF758FD0546A54202D9EB
:102A0000281B019001E0601B019003990198884206
:102A100002D8019803903746701CC6B2202EDFDD25
:102A20000698076064212046FDF73FFD41004118EC
:102A30000398814202D9002007B0F0BD0020C043B6
:102A4000FAE700000146002000BF01E0421CD0B2BE
:102A5000421D0B46D340024A9342F7D8704700000C
:102A6000E1F505000246034B196000BF0123137016
:102A700000BF704700F0FF1F70B504462546002DCB
:102A800001D1601E70BD696908892246044901F0C0
:102A900019F96969088901F05FF90020F2E700007F
:102AA000072B0000F8B504460E4660690768A56864
:102AB000384602F0B9FD01206074002020748021A6
:102AC000384602F089FDE868002803D03146EA68FC
:102AD00028699047F8BD70B5054668690468002DFF
:102AE00001D1681E70BD204602F071FD6869416821
:102AF000284600F007F900BFA07880210843A070A5
:102B000000BF0020EEE7F8B505460095009D686916
:102B1000066800BFF078044600BF307A0E210840F6
:102B20000746002C00D1F8BD02202040002834D0F8
:102B300010202040002809D01021304602F072FDFC
:102B40000221C9430098FFF7ADFF22E0082038407A
:102B5000002809D00821304602F06BFD0221C9434C
:102B60000098FFF79FFF14E002203840002809D0AA
:102B70000221304602F05DFD0221C9430098FFF7B3
:102B800091FF06E080202040002802D0009800F04D
:102B900006F80221304602F045FD00BFC3E770B5DC
:102BA00005462C46607C012806D0022805D0042862
:102BB00007D0082824D108E023E0204600F023F8BD
:102BC0001FE0204600F069F81BE0616908680021F9
:102BD00002F033FD616908680179A06840680170FE
:102BE00002206074A0688068012804D961690868BF
:102BF00002F0E6FC03E06169086802F00EFD00E007
:102C000000BF00BF70BDF8B506463446606907686E
:102C1000A568002C01D1601EF8BD0021384602F0E5
:102C20000CFDA868012808D9E168A868801E8142C7
:102C300003D2384602F0C4FC02E0384602F0EDFC54
:102C4000E168A868401E81420ED38021384602F018
:102C5000C3FC688880210840002802D0384602F072
:102C6000E3FC384602F0ACFC00BF3879E268511C46
:102C7000E16069688854E068A96888420BD3E86815
:102C8000002803D00021EA68286990470020E0600E
:102C90002074012060740020BEE7F8B50646344673
:102CA00060690768A568002C01D1601EF8BDE06866
:102CB000A96888420CD21021384602F0BEFCE268B6
:102CC000501CE0606868815C384602F07EFC17E0CA
:102CD0000020E06020748021384602F07DFC688886
:102CE00080210840002802D0384602F09DFC0120D7
:102CF0006074E868002803D00021EA6828699047DA
:102D00000020D3E7F3B5B9B00C463998406907689D
:102D10000020C043349000203390C82227496846E1
:102D2000FDF790FA384602F06DF936902448844257
:102D300003D90020C0433BB0F0BD002532E00120A4
:102D4000A840C0B237900020389025E03898800025
:102D50006A4680184088379A504301463698FDF7F6
:102D6000A4FB0646B44201D9A01B00E0301B3590FD
:102D700034993598884207D233953898800069464F
:102D8000085C3290359834903498002800D106E0E1
:102D90003898401CC0B2389038983228D6DB00BF33
:102DA000681CC5B2022DCADD33998901329A1143DC
:102DB000C8B2787000BF0020BDE70000088800009E
:102DC00040420F00F3B581B00D46019E7069046862
:102DD00028884004070C002E01D0002D02D10020CD
:102DE000C043FEBD307C012802D10F20C043F8E76C
:102DF000A878C007C00F002802D00D20C043F0E71C
:102E000001203074B5600020F0606888022108401D
:102E1000002802D00820707401E0042070746888D3
:102E20000421084000281DD168880221084000289C
:102E300008D00120074300BFA07804210843A070F8
:102E400000BF00E000BF00BFA07820210843A070B1
:102E500000BF1021204602F0F0FBF9B2204602F03C
:102E6000B4FB07E0688802210840002802D1304600
:102E7000FFF713FF2046802180220A40002A03D05A
:102E8000827840231A43827040220A40002A03D0ED
:102E9000827920231A43827120220A40002A03D01B
:102EA000027A01231A43027210220A40002A03D038
:102EB000827802231A43827000BF002091E7F8B5A0
:102EC00004464F1EC8000838211815461E460868DB
:102ED00049683A4606239A4310D02A463346FDF7FE
:102EE000A3FF3A46D200083AA3181A687F1E5B680F
:102EF000FDF746FD06223B469343EED1022F23D039
:102F0000042F11D0062F2FD12A463346FDF78CFF10
:102F1000E36AA26AFDF734FD2A463346FDF784FFD3
:102F2000636A226AFDF72CFD2A463346FDF77CFFD3
:102F3000E369A269FDF724FD2A463346FDF774FFD5
:102F400063692269FDF71CFD2A463346FDF76CFFD5
:102F5000E368A268FDF714FD2A463346FDF764FFD7
:102F600063682268FDF70CFDF8BD10B50122FEF77D
:102F70006FFC10BD10B5FDF703FD10BD002210B5AC
:102F8000134610461146FDF72BFD10BD034A10B540
:102F900000201107FEF75CFC10BD000001FDFFFFE3
:102FA000002806D00A49096904221143084A116120
:102FB00005E00749096904229143054A1161044962
:102FC000096902229143024A116130BF7047000033
:102FD00000ED00E010B50C4909680968C8680B49A4
:102FE00002F03AFB084909680968086803210902E8
:102FF00002F0B6FD044909680968086802F0AAFDF4
:103000000120FFF7CDFF10BD24F0FF1FE0C7000334
:1030100010B50446002C05D0012C02D0022C09D199
:1030200000BF00BFA1010A4A12681268106802F0CE
:1030300097FD00E010BD00BF0549096809680868F0
:1030400002F088FD0120FFF7ABFF00BFF2E70000B0
:1030500024F0FF1F10B50446002C05D0012C02D02F
:10306000032C13D100BF00BF0F4909680968C86865
:103070000E4902F0F1FA01229202224311460A4A55
:1030800012681268106802F06BFD00E010BD00BF0E
:10309000054909680968086802F05CFD0120FFF72E
:1030A0007FFF00BFF2E7000024F0FF1FE0C700032E
:1030B00010B50E49096809680868002102F044FD4E
:1030C00000240EE002F042F9002808D107490968FF
:1030D0000968486802F027FC012800D103E0601C61
:1030E000C4B2FF2CEEDB00BF10BD000024F0FF1FB8
:1030F00010B50E49096809680868402102F024FDEE
:1031000000240DE002F022F9002808D107490968DF
:103110000968486802F007FC002800D103E0641C3D
:1031200003488442EED300BF10BD000024F0FF1F0F
:103130001027000010B509490968096808680121CD
:10314000490202F00DFD054909680968086802F0A6
:1031500001FD0120FFF724FF10BD000024F0FF1F38
:1031600000B50020FFF71CFF00BD30B504460D463A
:103170002146002D04D0012D06D0022D0CD107E0F0
:103180008A604B61002030BDCA608B610020FAE785
:103190000A61CB610020F6E70D20C043F3E7000091
:1031A00070B504462546296B08792A46064900F081
:1031B00089FD296B087900F0CFFD2A6BE96A106858
:1031C00002F077FD002070BD913200000246002021
:1031D000C0437047FEB506460F46154634460020EC
:1031E0000290206B006801903B00FFF7D6FA084A76
:1031F00005273C472A35394A206B0068019000BFFB
:10320000019802F068FD102108400028F8D00198CC
:1032100001F0F8FE0090216B2A460868009902F040
:10322000AFFC02900298002804DD02986062002042
:10323000029002E00C20C043029026E0606A286001
:1032400023E02946204600F081F8002800D101E063
:103250000C20C043029018E02020005D286014E09C
:103260000320286011E02946204600F08DF8002850
:1032700000D101E00C20C043029006E0208D2860C0
:1032800003E00C20C043029000BF00BF0298FEBDC7
:10329000F8B506463446206B00680090009802F0AE
:1032A0001AFD054620202840002803D0204600F0C3
:1032B00018F806E080202840002802D0204600F0C0
:1032C00024F8E06A284000280AD0E06A0540206916
:1032D000002805D001232A4602212769E069B84762
:1032E000F8BDF8B50446206B0668304602F0F3FCE2
:1032F000074620203840002806D000BFF57900BFDF
:103300002946E268A0699047F8BDF8B50446206BED
:103310000668304602F0DFFC054680202840002881
:1033200003D11020284000280FD06946A2686069A8
:103330009047002805D168460178304602F0DDFC50
:1033400003E04021304602F0A2FCF8BD70B505460E
:103350000C46286B0668012C04D0022C02D00020F9
:10336000C04370BD022C04D12021304602F0A1FCE4
:1033700003E00449304602F08AFC20204455002036
:10338000EFE70000FF030000F8B507460E46386B74
:1033900004680025002F01D1681EF8BD386B046851
:1033A000204600BFC17804229143C17000BF00BF16
:1033B000C17808229143C17000BF00BF0C2030408B
:1033C000082802D00C280DD105E01021284688439A
:1033D000054600BF07E01021284688430546102017
:1033E000054300E000BF00BF20203040002806D089
:1033F00020212846884305462020054304E020215B
:1034000028468843054600BF4020304000280BD0A6
:10341000AD08AD0080203040002802D003200543D5
:1034200005E00220054302E0AD08AD0000BF202109
:1034300028460840217820229143217021780143B9
:10344000217000BF102128460840A1781022914326
:10345000A170A1780143A17000BFA807800FA178D7
:1034600089088900A170A1780143A17000BF20469E
:1034700002F000FC3E8500208FE7FEB504460E46B4
:103480002746386B05680196284602F024FC0005A3
:10349000000E009000BF28792021084040090099C3
:1034A0000840002802D10A20C043FEBD00BFE879D1
:1034B000019908700020F8E7F3B581B0044626466C
:1034C000306B0568284602F006FC0005070E00BFB9
:1034D000287980210840C0093840002802D10A20FC
:1034E000C043FEBD2846029902F007FC0020F8E721
:1034F00070B504462646306B05684021284602F028
:10350000D8FB002070BD70B505460E462C462069DC
:1035100000280ED0E168481CE0600E702069401E53
:1035200020612069002802D1606901F0B7FA00200B
:1035300070BD0420C043FBE770B505460E462C461F
:10354000A06800280FD06168481C6060087830705F
:10355000A068401EA060A068002802D1606901F048
:103560009DFA002070BD0520C043FBE730380A28D3
:1035700001D20120704700207047000010B50020E4
:103580000146024693004C0023430343094C236049
:1035900000BF01F0E1F902F04FF90749074801F0D7
:1035A000C9FD0749074801F003FE00F0BDF800F02F
:1035B00057F810BD00810440D088000030F0FF1F94
:1035C0000089000038F0FF1FF0B585B005460026E1
:1035D00000240027A5226846C2712146641C42547B
:1035E000A52101722246641C815468784042C1B210
:1035F000684641722246641C8154A8784042C1B298
:10360000684681722246641C815413480088011266
:103610006846C1722246641C81540F48027868468D
:1036200002732146641C425400BF05E06846805D79
:10363000C019C7B2701CC6B2A642F7DB6846477312
:103640002046611CCCB269460F540E220348006824
:1036500001F0E8F905B0F0BD84FCFF1F7CFCFF1F02
:1036600010B501202C494968032292069143820635
:103670001143294A516000BF0A202849284A891865
:10368000021292008958012282401143234A244B9E
:10369000D21803129B00D15000BF812149040120A0
:1036A00000F0C4F881214904022000F0BFF81D4851
:1036B00001F0A8FC0446E12212022146194802F05A
:1036C0005FFA18480021027820239A43027002789A
:1036D0000A43027000BF00BF827810239A438270B1
:1036E00082780A43827000BF00BF827892089200FD
:1036F000827082780A43827000BF00BF00BFC17829
:1037000004221143C17000BF00BFC17808221143D9
:10371000C17000BF00BF10BD0080044000700440B5
:103720003410000000A0064010B501F0E1F9044695
:1037300004201249086000BF0021104801F037F949
:103740000F492046FCF7B1FE0E4908607D21C900F3
:103750002046FCF7AAFE0C490860224600230B48CD
:103760000B49FCF7B9FD0B4908607D21C9000948E8
:103770000068FCF79AFE0849086010BD10E000E000
:1037800040420F0004F0FF1F08F0FF1FC0BDF03FD4
:10379000420F00000CF0FF1F10F0FF1FF8B50026CD
:1037A00014480068002800D1F8BD12480068046879
:1037B000A06803218902411849681039C9B20E4630
:1037C0002068B04202DC6068B04200DAECE72069B1
:1037D000855DFF2D00D1E7E7E900A0694758E900C2
:1037E000A069401840680090002F01D00098B847A9
:1037F00000BFD9E720F0FF1FF0B501460A48006876
:1038000004686268134608464511AD01ED182D693C
:10381000C706FF0E0126BE403540002D01D0012510
:1038200000E000252846F0BD1CF0FF1FFEB5044651
:103830000F466E480068006802900298056802987A
:1038400046687807400F0190B806400F00900122AB
:103850002146284602F06DF80198002839D00198D9
:10386000012806D0022809D003280CD004282ED124
:103870001BE02146304601F085FE29E02146304616
:1038800001F08FFE24E02146304601F08AFE00BFA1
:10389000601180013058E206D20E012191400843A8
:1038A00061118901705000BF12E02146304601F0DD
:1038B00078FE00BF601180013058E206D20E01216F
:1038C0009140884361118901705000BF00E000BF42
:1038D00000BF009800283AD00098002810D100BFFF
:1038E000601100034019E106490E40580221884347
:1038F000611109034919E206520E885000BF26E003
:103900000098012808D12146284602F070F8214687
:10391000284602F07CF81AE00098022814D12146CB
:10392000284602F064F800BF601100034019E10668
:10393000490E405840084000611109034919E20648
:10394000520E885000BF02E00D20C043FEBD012092
:1039500040043840002805D0B801420F21462846CF
:1039600001F0E7FF012080033840002810D000BF9D
:10397000601100034019E106490E40580421084334
:10398000611109034919E206520E885000BF00BFB9
:103990000120C0033840002810D000BF6011000390
:1039A0004019E106490E40581021084361110903EE
:1039B0004919E206520E885000BF00BF01200004E2
:1039C0003840002810D000BF601100034019E10604
:1039D000490E405840210843611109034919E20684
:1039E000520E885000BF00BF0020AFE71CF0FF1F41
:1039F00070B502460B461448006806687168002BD3
:103A00000FD100BF5011800140188068D506ED0E1F
:103A10000124AC4020435411A4016418A06000BFED
:103A20000FE000BF5011800140184068D506ED0E30
:103A30000124AC4020435411A4016418606000BF0D
:103A400000BF002070BD00001CF0FF1FF8B5044649
:103A50000E462848006807683D687868009021464F
:103A6000009801F08FFD2146284601F0C0FF214655
:103A7000284601F0CCFF3300FEF78FFE0604161C2B
:103A800022282E3400BF601100034019E106490EC0
:103A900040580F2109048843611109034919E206BE
:103AA000520E885000BF1EE00C222146284601F02D
:103AB00068FF18E008222146284601F062FF12E064
:103AC00009222146284601F05CFF0CE00A2221462B
:103AD000284601F056FF06E00B222146284601F059
:103AE00050FF00E000BF00BF2146284601F05DFF07
:103AF0000020F8BD1CF0FF1F70B504AC70CC018035
:103B0000428043608460C560066170BDFFB589B0C6
:103B1000044616461D46E0880F2109030840071396
:103B200000BF0020039000BF002F1ED103A82A4928
:103B3000009501910290E088022318430246A18873
:103B4000334604A8FFF7D8FF04A9206800F048F81E
:103B500003A800F0A8FF21480068002803D01F48F0
:103B600000680DB0F0BD0020FBE703A81A490097DC
:103B700001910290E288A1880AAB04A8FFF7BCFF7C
:103B800004A9206800F02CF803A800F08CFF13486B
:103B90000068002802D011480068E2E703A80E4937
:103BA000009501910290E088822318430246A18883
:103BB000334604A8FFF7A0FF04A9206800F010F81E
:103BC00003A800F070FF05480068002802D00348F1
:103BD0000068C6E70020C4E7652A000000F0FF1F68
:103BE00070B504460D46216860680A68294690470A
:103BF00070BD0000FFB589B0044616461D46E0883A
:103C00000F2109030840071300BF0020039000BFE5
:103C1000002F1BD103A82949009501910290E28849
:103C2000A188334604A8FFF767FF04A92068FFF7BF
:103C3000D7FF03A800F037FF21480068002803D011
:103C40001F4800680DB0F0BD0020FBE703A81B492A
:103C5000009701910290E288A1880AAB04A8FFF7BF
:103C60004BFF04A92068FFF7BBFF03A800F01BFF70
:103C700013480068002802D011480068E2E703A852
:103C80000E49009501910290E08884231843024672
:103C9000A188334604A8FFF72FFF04A92068FFF787
:103CA0009FFF03A800F0FFFE05480068002802D02F
:103CB00003480068C6E70020C4E70000652A00004A
:103CC00000F0FF1FF0B503460D4616461A4800687F
:103CD000016800220868984202DC4868984202DACB
:103CE0000020C043F0BD002D01D1681EFAE708692D
:103CF000C25CFF2A0DD1002407E0E7008869C059A3
:103D0000002801D1224603E0641CC868A042F4DC0C
:103D100000E0FF22FF2A08D00F69FA54D700886913
:103D2000C551D7008869C0194660FF2A02D1012019
:103D3000C043D7E70020D5E720F0FF1F70B5044649
:103D40000448006805682146A86801F07EFC002050
:103D500070BD000020F0FF1F10B501460548006847
:103D600002689068CC06E40E0123A340036000BF04
:103D7000002010BD20F0FF1F70B504460025264628
:103D8000002E02D0B068002800D170BD002507E0E9
:103D9000B068806841190F4801F018FE681CC5B270
:103DA000042DF5DB66210B4801F010FE0949642063
:103DB000421112035218C3065B0ED25801231B0690
:103DC0001A40120E002A03D06421024801F0FEFDC1
:103DD00000BFDAE700900440F8B506460F4600251C
:103DE0003446002C02D0A068002800D1F8BD012084
:103DF0002070676000250DE0A168896848190321DB
:103E0000FFF724FEA168896848191121FFF70EFD0C
:103E1000681CC5B2042DEFDB03216620FFF716FEF8
:103E200011216620FFF702FD0B216420FFF7FEFC45
:103E3000A1680878FFF782FFA268107822466168BF
:103E4000FFF740FF00BFD1E770B504462546002DBF
:103E500002D0A868002800D170BDA9680878FFF7D3
:103E60006DFF00BFF8E770B504462546002D02D06F
:103E7000A868002800D170BDA9680878FFF76CFF1A
:103E800000BFF8E70FB438B505A800900099049872
:103E9000FCF7A4FA044600200090204638BC08BC79
:103EA00004B0184770B505460E460024002D01D019
:103EB000002E01D1002070BD002028706860AE6027
:103EC000002406E0B16808191121FFF7AFFC601C5F
:103ED000C4B2042CF6DB002406E0F16808190421C2
:103EE000FFF7A4FC601CC4B2042CF6DB2846E2E712
:103EF000FEB50746002001900090002400263D46B4
:103F0000002D02D0A868002801D10120FEBD0024A8
:103F100007E0A968C96808190021FFF769FD601C5E
:103F2000C4B2042CF5DB002427E0A968C96808198D
:103F30000121FFF75DFD032000F08EFD002612E059
:103F4000A96889688819FFF757FC80B2009000982B
:103F5000C007C00FA100891988400199084380B2A9
:103F60000190701CC6B2042EEADBA968C968081962
:103F70000021FFF73DFD601CC4B2042CD5DB0024FA
:103F800007E0A968C96808190121FFF731FD601C25
:103F9000C4B2042CF5DB0198B8E7FEB505460C4623
:103FA00000200190002600902F46002F02D0B86814
:103FB000002801D10120FEBD002C01D0012C03D12D
:103FC0003846FFF795FFF6E73846FFF791FF0646BC
:103FD0000090002001900DE03846FFF789FF06466B
:103FE0000098864201D13046E5E700960198401CD2
:103FF000C0B20190601E01998842EDDC0120DAE731
:1040000070B50546234801682846FCF74EFA044679
:10401000204801682846FCF748FA0E46002C1CD0C0
:104020001C4800681C4A1268504301461B4800F0B7
:10403000BAFC0021194800F0BAFC184800F0A7FCAF
:1040400006E000BF154800F0A7FC0128FAD1641E65
:10405000002CF6D1114800F095FC0F480068704321
:1040600001460E4800F09FFC00210C4800F09FFC28
:104070000A4800F08CFC00BF084800F08DFC0128C5
:10408000FAD1064800F07EFC0021044800F08FFCC5
:1040900070BD000010F0FF1F08F0FF1F10E000E0EF
:1040A000F8B505460E46002000902C46002C02D0A4
:1040B0002068002800D1F8BD01236A461C21201D7C
:1040C000FFF724FD68460078E72108403043C1B27D
:1040D000009101236A461C21201DFFF78BFD00BFC4
:1040E000E9E7F8B505460E46002000902C46002C66
:1040F00002D02068002800D1F8BD01236A466B2158
:10410000201DFFF703FD68460078F8210840304382
:10411000C1B2009101236A466B21201DFFF76AFDA1
:1041200000BFE9E7F8B505460E46002000902C4692
:10413000002C02D02068002800D1F8BD01236A4677
:104140001A21201DFFF7E2FC68460078F82108409C
:104150003043C1B2009101236A461A21201DFFF7A6
:1041600049FD00BFE9E7F8B505460E46002000907E
:104170002C46002C02D02068002800D1F8BD012375
:104180006A461B21201DFFF7C1FC68460078E72125
:1041900008403043C1B2009101236A461B21201D13
:1041A000FFF728FD00BFE9E7F8B504460D461646BF
:1041B000002E01D0002D01D10020F8BD2660E56061
:1041C000201DE7683A887B88216801608280C3806F
:1041D00000BF8021204600F0D8F800212046FFF7DC
:1041E0005FFF18212046FFF7BEFF04212046FFF79E
:1041F00099FF1321204600F0ECF80021204600F042
:10420000B3F88021204600F02CF85921204600F018
:104210000AF801212046FFF764FF4021204600F004
:10422000EEF82046C9E7F8B505460E460020009096
:104230002C46002C02D02068002800D1F8BD0123B4
:104240006A463821201DFFF761FC69460878B043B3
:10425000009001236A463821201DFFF7CBFC00BFE8
:10426000ECE7F8B506460C46002000903546002DD8
:1042700002D02868002800D1F8BD01236A46372102
:10428000281DFFF743FC80202040002805D0694608
:10429000087880210843009004E06946087880216E
:1042A0008843009040202040002805D069460878C7
:1042B00040210843009004E0694608784021884383
:1042C000009020202040002805D069460878202151
:1042D0000843009004E06946087820218843009054
:1042E00010202040002805D0694608781021084396
:1042F000009004E069460878102188430090082067
:104300002040002805D0694608780821084300901D
:1043100004E0694608780821884300900420204082
:10432000002805D06946087804210843009004E07D
:104330006946087804218843009002202040002824
:1043400005D06946087802210843009004E06946D8
:10435000087802218843009001236A463721281DEE
:10436000FFF748FC00BF87E773B504462546002DDC
:1043700002D02868002800D17CBD012301AA1F219A
:10438000281DFFF737FC00BFF6E7F8B505460E46D7
:10439000002000902C46002C02D02068002800D17C
:1043A000F8BD01236A466B21201DFFF7AFFB68466D
:1043B0000078304000280AD1684600783043C1B206
:1043C000009101236A466B21201DFFF713FC00BFFB
:1043D000E6E7F8B504460E46002000902546002D7D
:1043E00002D02868002800D1F8BDF0B20090012367
:1043F0006A461921281DFFF7FDFB00BFF4E7F8B559
:1044000005460E46002000902C46002C02D0206865
:10441000002800D1F8BD01236A466B21201DFFF75B
:1044200075FB684600783040002809D06946087856
:10443000B043009001236A466B21201DFFF7DAFB91
:1044400000BFE7E7F0B59BB00D4616461C467F2738
:10445000FF0500201A901990189086480068109067
:104460001098002803D010980068002802D101207D
:104470001BB0F0BD15A816A917AB11AA00910190A9
:104480003146284602F0F8F8002801D00120EFE775
:1044900010A91820085EFF210131084000287DD0B6
:1044A0001198FCF721FF9D21C9050F90FCF70AFE2A
:1044B00007461298FCF718FF9D21C9050F90FCF7DD
:1044C00001FE1A901398FCF70FFF9D21C9050F906C
:1044D000FCF7F8FD19901498FCF706FF9D21C9051B
:1044E0000F90FCF7EFFD189039460120800704F08B
:1044F000B3F80690199904F0AFF8089003208007EC
:104500001A9904F0A9F80690189904F0A5F80790F4
:10451000089904F05BF80990FCF7AAFD0B910A904A
:1045200001F0EEFB544A554B0D910C90FCF77CFCCE
:104530000F910E90FCF76AF820600120800719990E
:1045400004F08AF80390199904F086F80590032086
:1045500080071A9904F080F803901A9904F07CF807
:104560000490059904F0D0F87F21C905069004F065
:104570002DF80790FCF77CFD0B910A90394601203D
:10458000800704F069F804901A9904F065F8069021
:1045900001208007199904F05FF800E066E00490BC
:1045A000189904F059F80590069904F00FF807904F
:1045B000FCF75EFD099108900B9B0A9A01F0E8FD5B
:1045C0002D4A2E4B0D910C90FCF72EFC0F910E9066
:1045D000FCF71CF860601899084604F03DF8069056
:1045E0001999084604F038F804901A99084604F01E
:1045F00033F839460290384604F02EF801900299BB
:1046000003F0E4FF0390049904F07EF80590069906
:1046100004F07AF80790FCF72BFD0B910A903846CE
:10462000189904F019F8059019991A9804F014F8DB
:104630000490059903F0CAFF01218907069004F050
:104640000BF80790FCF714FD099108900B9B0A9A50
:1046500001F09EFD084A094B0D910C90FCF7E4FB1C
:104660000F910E90FBF7D2FFA06001E00220FFE661
:104670000020FDE640F0FF1F6666666666A64C40B9
:1046800070B5064638480468002C02D0206800281F
:1046900001D1012070BD02F035FF00285CD17820E7
:1046A00003F0F4FD002801D00120F3E72FA0FFF76D
:1046B000E9FB782002F02EFE002801D00220E9E775
:1046C00033A0FFF7DFFB642003F08CFD002801D04E
:1046D0000320DFE738A0FFF7D5FB01F0BFFF00287C
:1046E00001D00420D6E73EA0FFF7CCFB494802F0FA
:1046F00062FC054602F036FA002801D00520C9E721
:1047000045A0FFF7BFFBFF20743001F04FFE0028EB
:1047100001D00620BEE74AA0FFF7B4FB642002F0F8
:1047200043F9002801D00720B4E74EA0FFF7AAFB09
:1047300003F05AFE002801D00820ABE754A0FFF791
:10474000A1FB012003F038FC002801D00920A1E7DB
:1047500059A0FFF797FB01E00A209BE7002003F038
:10476000F7FC002096E7000040F0FF1F6D70755FBA
:104770007365745F73656E736F7220636F6D706CB9
:10478000657465202E2E2E2E2E2E0D0A00000000A0
:104790006D70755F636F6E6669677572655F666978
:1047A000666F20636F6D706C657465202E2E2E2EE3
:1047B0002E2E0D0A000000006D70755F7365745F2A
:1047C00073616D706C655F7261746520636F6D708D
:1047D0006C657465202E2E2E2E2E2E0A00000000F1
:1047E000646D705F6C6F61645F6D6F74696F6E5F35
:1047F0006472697665725F6669726D776172652051
:10480000636F6D706C657465202E2E2E2E2E2E0A11
:104810000000000068FCFF1F646D705F7365745FCB
:104820006F7269656E746174696F6E20636F6D700D
:104830006C657465202E2E2E2E2E2E0A0000000090
:10484000646D705F656E61626C655F6665617475ED
:10485000726520636F6D706C657465202E2E2E2E30
:104860002E2E0A00646D705F7365745F6669666FF3
:104870005F7261746520636F6D706C657465206331
:104880006F6D706C657465202E2E2E2E2E2E0A00F4
:10489000646D705F72756E5F73656C665F7465736F
:1048A0007420636F6D6520636F6D706C6574652037
:1048B0002E2E2E2E2E2E0A006D70755F7365745F7E
:1048C000646D705F737461746520636F6D706C6587
:1048D0007465202E2E2E2E2E2E0A0000F8B50F46BF
:1048E00015461E46002000900D480468002C02D09A
:1048F0002068002801D10120F8BD012D07DD2B46DD
:1049000032463946201DFFF701F9009006E00223E8
:1049100032463946201DFFF7F9F800900098EBE782
:1049200040F0FF1FF8B50F4615461E4600200090C8
:1049300008480468002C02D02068002801D101201A
:10494000F8BD2B4632463946201DFFF753F900903B
:104950000098F5E740F0FF1F10B500F093FF054900
:10496000054800F055FC00F041FF0449044800F000
:10497000D3F810BD1C890000E8FDFF1F608900000E
:1049800090FEFF1F016849084900016070470168F7
:104990000122114301607047014608680122120498
:1049A0001040000C70470A02120A426070470A0267
:1049B000120A82607047FFB581B004460D46174663
:1049C000216860688E683A462946049BB04705B066
:1049D000F0BD0000F8B505460C46002C01D10020C2
:1049E000F8BD2C6005260227216860683A460B68EE
:1049F000314698472B46094A00212046FFF7DBFF46
:104A00002B46074A01212046FFF7D5FF00BF226849
:104A10006068516988472846E2E7000039350000A0
:104A200007350000F7B582B004461646254600BF9C
:104A30000020019000BF01A8686103986860AE6023
:104A40002F683A6878685168884701A800F033F801
:104A5000304605B0F0BD000010B504460D480068B2
:104A6000604301460C48FFF79EFF00210A48FFF70C
:104A70009EFF0948FFF78BFF00BF0748FFF78CFF39
:104A80000128FAD10448FFF77DFF00210248FFF713
:104A90008EFF10BD04F0FF1F10E000E00146012072
:104AA000087000207047014600BF08780028FCD03D
:104AB000002008707047014600BF08780028FCD02D
:104AC000002008707047000070B50024002500BF6A
:104AD000064840684003400F044600F009F80646C7
:104AE000611CFBF7E2FC0546284670BD408004408F
:104AF00070B50024002500BF06484068000F04463A
:104B000000F0C4F80646611CFBF7CFFC05462846BA
:104B100070BD00004080044070B504460D46002C76
:104B200001D0002D02D10020C04370BD2878072895
:104B30000AD117496868884203D3890068688842A7
:104B400002D90020C043F0E7256021684868114978
:104B5000FBF7ABFC401E207118206071216848688B
:104B6000FDF770FFA0710420A0600B480460287856
:104B7000072805D1012020736073FDF775FED4E787
:104B80000020207301206073FDF72CFE0020CCE78D
:104B900000127A0080841E0028F0FF1FF8B500255F
:104BA0000024002600BF2648C07840110300FDF70E
:104BB000F4FD08050B1116080E14191B0524E40159
:104BC00013E0B724A40010E0052424020DE0B7246C
:104BD000E4000AE00F24E40107E01A4C05E0052494
:104BE000640202E0184C00E000BF00BF00F068FD66
:104BF000012801D1E60320E000BF114800788006BB
:104C0000400F054600F0ACFD00280BD100F0E4F9A0
:104C100007460120A84001463846FBF746FC6043A2
:104C200006460AE000F0D8F907462020A8400146D1
:104C30003846FBF73AFC604306463046F8BD0000B4
:104C40000040064095080000710B000070B500247C
:104C5000002500BF0B484078C007C00F002802D1D4
:104C60000125ED030CE000BF0648007A0007400F65
:104C700004460120A04001460348FBF716FC054608
:104C8000284670BD0040064000093D0010B50024D4
:104C900000F06EFD012803D1FFF7D8FF044615E0B0
:104CA00000F066FD022803D100F096F904460DE0FD
:104CB00000BF074840794006C00F002803D1FFF726
:104CC0006DFF044602E000F005F80446204610BDE2
:104CD00000400640F8B500240025002600BF0B4820
:104CE0000079C006C00E044600BF08484079C006DF
:104CF000C00E054600F070F90746611CFBF7D5FBB6
:104D000029461831484306463046F8BD0040064063
:104D100008B50020009000F0D5F8052802D000204A
:104D2000C04308BD31490968087900F03BFD2F49AF
:104D30000968487900F048FD00F008FD0020009067
:104D400007E000F04BFD012800D107E00098401C6F
:104D500000907D21090100988842F2D300BF00F045
:104D60003DFD012802D00020C043DAE7002000907A
:104D700007E000F021FD012800D107E00098401C69
:104D800000907D21090100988842F2D300BF00F015
:104D900013FD012802D00020C043C2E7002000F02C
:104DA000EDFC0020009007E000F0F4FC032800D1A7
:104DB00007E00098401C00907D210901009888427E
:104DC000F2D300BF00F0E6FC032802D00020C0436D
:104DD000A7E706490968087B00F030FE0349096827
:104DE000487B00F037FE00209BE7000028F0FF1F03
:104DF00008B50020009000F065F8022802D00020DD
:104E0000C04308BD002000F04FFC002000F040FC33
:104E100000F09CFC002000F0B1FC0020009007E0B6
:104E200000F0B8FC002800D107E00098401C00907A
:104E30007D21090100988842F2D300BF00F0AAFC4E
:104E4000002802D00020C043DBE7002000F0F6FD80
:104E5000002000F0FFFD0020D3E708B500200090FF
:104E600000F030F8002802D00020C04308BD002028
:104E700000F04CFC012000F055FC012000F07EFC0D
:104E80000020009007E000F085FC012800D107E039
:104E90000098401C00907D21090100988842F2D3BF
:104EA00000BF00F077FC012802D00020C043DDE7FE
:104EB00000F042FC002000F0C1FD032000F0CAFD1C
:104EC0000020D3E7F8B50920009000F063FC074606
:104ED00000F0F6FB044600BF204840788007C00F72
:104EE000064600F07BFC0546002F06D0012F0ED0B1
:104EF000022F18D0032F2CD124E0002D06D1002C36
:104F000002D10320009001E00020009022E0012C5B
:104F100008D1002D06D1002E02D10120009001E021
:104F20000220009016E0002C0BD1002E07D1002D9E
:104F300002D00620009004E00420009001E005204B
:104F4000009007E0002C03D1002D01D00720009035
:104F500000E000BF00BF0098F8BD00000040064020
:104F600038B5002000901A48006800684468FFF7D0
:104F7000A9FF072802D00020C04338BD022000F05E
:104F8000FDFB0020009007E000F004FC022800D1A7
:104F900007E00098401C00907D210901009888429C
:104FA000F2D300BF00F0F6FB022802D00020C0437D
:104FB000E3E700F0C1FB07492046FBF776FA054618
:104FC00000F03CFD032000F045FD0020D5E7000087
:104FD00028F0FF1F00093D00002000BF0749497865
:104FE0004907C90F002904D00549096809684868BC
:104FF00003E00349096809684868704700400640B3
:1050000028F0FF1F70B505462C461B48844208D087
:105010001A48844205D01A48844202D01948844272
:1050200002D1FFF751FD70BD1748844205D01748E3
:10503000844202D01648844202D1FFF759FDF2E7BC
:105040001448844202D100F052F8ECE7124884423E
:1050500005D01248844202D01148844202D100F0A7
:1050600023F8E0E70F48844202D1FFF7EFFDDAE7CB
:10507000FFF72AFDD7E7000000B0064000C0064059
:10508000006007400060064000F00F4000700740DD
:105090000070064000A006400080034000900340DE
:1050A00000A003400000044010B5002400F03CFDC7
:1050B00000281AD000F038FD032803D1FFF7C6FD01
:1050C000044612E000F030FD022803D1FFF784FF10
:1050D00004460AE000F014FD002803D1FFF75EFD4E
:1050E000044602E0FFF7F6FD4408204610BD10B567
:1050F000002400F021FD00281AD000F01DFD032837
:1051000003D1FFF7A3FD044612E000F015FD0228CD
:1051100003D1FFF761FF04460AE000F0F1FC00282C
:1051200003D1FFF73BFD044602E0FFF7D3FD44083F
:10513000204610BD30B50246002A01D0002902D118
:105140000020C04330BD11600E4802600120107184
:105150004869002802D00869002801D10020107198
:10516000107900280CD0002307E0FF200C69E054E0
:105170000020DD004C6960515B1CC8689842F4D87F
:105180000020DFE71CF0FF1F70B504460D460748FE
:1051900020606460656100202074A060E0600120F0
:1051A00060742046FDF797FC204670BD0088000023
:1051B00030B50246002A01D0002902D10020C043A8
:1051C00030BD11601148026001201071086900288B
:1051D00002D08869002801D10020107110790028C0
:1051E00012D0002303E0FF200C69E0545B1CC86868
:1051F0009842F8DC002304E00020DD008C69605157
:105200005B1C48699842F7DC0020D9E720F0FF1FBB
:10521000F3B583B00D46287C8006C00E01904A4944
:1052200003980860039805602E686C68AF68E868AA
:105230000290002E09D0002C07D0002F05D0029834
:10524000002802D00198202803DD0020C04305B0CB
:10525000F0BD002103984160287CC007C00F0028E2
:1052600007D00420B978042211400143B97000BF6F
:1052700000BF0198002804D10021384600F0D7FB78
:105280000CE01021384600F0D2FB0199C806C00E90
:10529000411EC906C90EF97000BF00BF4021286930
:1052A0000840002806D000BFA07810210843A07055
:1052B00000BF06E000BFA07810218843A07000BFA7
:1052C00000BF802128690840002806D000BFA078D0
:1052D00001210843A07000BF06E000BFA07840088D
:1052E0004000A07000BF00BFFF21013128690840C5
:1052F000002806D000BFB07820210843B07000BF5E
:1053000006E000BFB07820218843B07000BF00BF26
:105310000121490228690840002808D0A078082106
:105320000840002803D02021204600F0CDFAC021FB
:10533000204600F0E2FA204600F0F0FA2A20307011
:1053400000BF002083E7000024F0FF1F0549096823
:1053500009680868C178042901D10120704700203C
:10536000FCE7000024F0FF1F70B50546FFF7EEFFD5
:105370000446AC4201D1002070BD2B00FDF70DFAB0
:105380000C07204E565E6770797C82868A8E012CCF
:1053900015D1FDF78DFEFFF795FD052802D1FFF72A
:1053A000B7FC05E0FFF78EFD022801D1FFF720FDD5
:1053B000FFF7CCFF002802D00020C043DCE76EE0FE
:1053C000002C2AD1FFF77EFD072802D1FFF7C8FD88
:1053D00005E0FFF777FD002801D1FFF73EFD012032
:1053E00030494978814301432E4A517000BFFDF78F
:1053F0007FFEFFF7ABFF01280FD0FFF763FD052805
:1054000002D1FFF785FC05E0FFF75CFD022801D122
:10541000FFF7EEFC0020C043AEE740E0002C02D0D6
:105420000120C043A8E7FDF79BFE38E0012C02D025
:105430000120C043A0E7FDF793FE30E0002C02D02E
:105440000120C04398E70220FDF7E2FD27E0002C91
:1054500002D00120C0438FE70120FDF7D9FD1EE0F7
:10546000002C02D00120C04386E70020FDF7D0FDCC
:1054700015E0FDF75FFE12E00720FEF76DFCFDF77B
:10548000A9FD0CE00320FDF7E5FD08E00120FDF794
:10549000E1FD04E00020FDF7DDFD00E000BF00BFFE
:1054A000002069E700400640F8B504460D46002D8F
:1054B00002D02868002801D10020F8BD2F6825639C
:1054C0002E4820606460A8686062002020852C4817
:1054D000A060002060612A48E0600020A0612848A8
:1054E00020610020E061F021E8688843E0626E7985
:1054F000F006C60F002E02D0012E0AD104E0208D46
:1055000008210843208509E0208D0C2108432085CF
:1055100004E0208D0C210843208500BF00BF6E7978
:10552000B607B60F022E04D1208D402108432085F6
:1055300005E0032E03D1208DC02108432085687922
:1055400020210840002802D0208D08432085218D8D
:105550002046FDF719FF3846FFF754FD009001463D
:105560003846AA6800F00CFB606201212046FDF776
:10557000EDFE384600F07EFB20469EE7E8870000FF
:10558000CD31000010B54A11920112185269CC06B3
:10559000E40E0123A3409A434B119B011B185A614F
:1055A00010BD10B54A11920112185269CC06E40ED2
:1055B0000123A3401A434B119B011B185A6110BDD4
:1055C000817808229143817070470171704781781A
:1055D000802291438170704780220A40002A03D0C4
:1055E000827840239A43827040220A40002A03D0E6
:1055F000827920239A43827120220A40002A03D014
:10560000027A52085200027210220A40002A03D085
:10561000827802239A43827070478178082211436E
:1056200081707047C17070478178202291438170EA
:105630007047027A0A4302727047827810239A43B5
:10564000827082780A4382707047CB06DB0E01229B
:105650009A4080231A50704710B541710A04130E06
:105660008371027A4B0C802423401A430272427ADF
:105670008B0C23401A43427210BD00000348007A8D
:1056800080218843014908727047000000400640AD
:105690000449C978E022914342011143014AD17083
:1056A00070470000004006400449097838229143C1
:1056B000C2001143014A11707047000000400640CB
:1056C000024800784007C00F7047000000400640C5
:1056D000044909780422914382001143014A117060
:1056E00070470000004006400248807910210840C1
:1056F000704700000040064003480078022108433C
:105700000149087070470000004006400449097ACA
:105710000E22914342001143014A1172704700006A
:105720000040064003494978490849000143014ABD
:1057300051707047004006400348407802210843FA
:105740000149487070470000004006400348407817
:10575000022188430149487070470000004006401C
:10576000024840788006800F7047000000400640E5
:1057700001480078801170470040064004490978CC
:10578000C022914382011143014A11707047000009
:1057900000400640024880790007800F70470000F3
:1057A0000040064003490979490949010143014A7A
:1057B000117170470040064002488079402108403E
:1057C00070470000004006400349497949094901F2
:1057D0000143014A517170470040064002488079F8
:1057E00020210840704700000040064010B5FF200F
:1057F0000A300E490E4A8918021292008958012275
:1058000082401143094A0A4BD21803129B00D1501F
:1058100000BF012252041221064800F09EF8012226
:1058200052041321034800F098F810BD00700440A2
:10583000341000000090044010B5FF200A3000F042
:1058400023F9FF200B3000F01FF9FF200C3000F08F
:105850001BF9FF200D3000F017F9FF200E3000F08B
:1058600013F910BD10B5812149044920FDF7DEFF71
:10587000812149044820FDF7D9FF062000F018F9DE
:1058800010BD0000072001218140024A116000BFC5
:105890007047000000E100E010B508218120FDF70D
:1058A000C5FF08218020FDF7C1FF06498120FDF7D3
:1058B000BDFF04498020FDF7B9FF0B2000F00CF973
:1058C00010BD00000800820180220A40002A03D097
:1058D000027840231A43027040220A40002A03D073
:1058E000427840231A43427020220A40002A03D003
:1058F000827808231A438270704780220A40002A67
:1059000003D0027820239A43027040220A40002AE2
:1059100003D0427820239A434270704701781022C6
:105920009143017070470146887804221040800836
:10593000704730B54B111B031B18CC06640E1B5966
:1059400007242402A3435407640D23434C1124036A
:105950002418CD066D0E635130BD30B54B111B03BD
:105960001B18CC06640E1B5907242402A3435407BA
:10597000640D23434C1124032418CD066D0E63518E
:1059800030BD30B54B111B031B18CC06640E1B59E0
:105990000F242404A3431407240B23434C11240392
:1059A0002418CD066D0E635130BD10B54A11120397
:1059B0001218CB065B0ED25801231B061A434B115B
:1059C0001B031B18CC06640E1A5110BD10B54A11EA
:1059D00012031218CB065B0ED25801231B061A4382
:1059E0004B111B031B18CC06640E1A5110BD10B5C9
:1059F0004A1112031218CB065B0ED25802231A4327
:105A00004B111B031B18CC06640E1A5110BD10B5A8
:105A10004A1112031218CB065B0ED25801231A4307
:105A20004B111B031B18CC06640E1A5110BD827853
:105A30009207920F0A438270704700000449496838
:105A40000901090902071143014A5160704700002A
:105A5000408004400449496807221204914302042B
:105A60001143014A5160704740800440054909686C
:105A70000322920491438207120B1143014A1160E1
:105A800070470000007004400749084A8918021254
:105A900092008958012282401143034A034BD218D5
:105AA00003129B00D1507047007004403410000076
:105AB0000749084A89180212920089580122824037
:105AC0001143034A034BD21803129B00D150704775
:105AD00000700440341000000749084A8918021277
